{
  "contractName": "Record",
  "abi": [
    {
      "inputs": [],
      "stateMutability": "nonpayable",
      "type": "constructor"
    },
    {
      "inputs": [],
      "name": "nbOfUsers",
      "outputs": [
        {
          "internalType": "uint256",
          "name": "",
          "type": "uint256"
        }
      ],
      "stateMutability": "view",
      "type": "function",
      "constant": true
    },
    {
      "inputs": [],
      "name": "owner",
      "outputs": [
        {
          "internalType": "address",
          "name": "",
          "type": "address"
        }
      ],
      "stateMutability": "view",
      "type": "function",
      "constant": true
    },
    {
      "inputs": [],
      "name": "userCount",
      "outputs": [
        {
          "internalType": "uint256",
          "name": "",
          "type": "uint256"
        }
      ],
      "stateMutability": "view",
      "type": "function",
      "constant": true
    },
    {
      "inputs": [
        {
          "internalType": "uint256",
          "name": "",
          "type": "uint256"
        }
      ],
      "name": "userList",
      "outputs": [
        {
          "internalType": "address",
          "name": "",
          "type": "address"
        }
      ],
      "stateMutability": "view",
      "type": "function",
      "constant": true
    },
    {
      "inputs": [
        {
          "internalType": "address",
          "name": "",
          "type": "address"
        }
      ],
      "name": "users",
      "outputs": [
        {
          "internalType": "string",
          "name": "name",
          "type": "string"
        },
        {
          "internalType": "string",
          "name": "celphone",
          "type": "string"
        },
        {
          "internalType": "string",
          "name": "phone",
          "type": "string"
        },
        {
          "internalType": "string",
          "name": "email",
          "type": "string"
        },
        {
          "internalType": "string",
          "name": "gender",
          "type": "string"
        },
        {
          "internalType": "string",
          "name": "dob",
          "type": "string"
        },
        {
          "internalType": "string",
          "name": "houseaddr",
          "type": "string"
        },
        {
          "internalType": "string",
          "name": "state",
          "type": "string"
        },
        {
          "internalType": "string",
          "name": "cp",
          "type": "string"
        },
        {
          "internalType": "address",
          "name": "addr",
          "type": "address"
        },
        {
          "internalType": "uint256",
          "name": "uploadTime",
          "type": "uint256"
        }
      ],
      "stateMutability": "view",
      "type": "function",
      "constant": true
    },
    {
      "inputs": [
        {
          "internalType": "string",
          "name": "_signature",
          "type": "string"
        }
      ],
      "name": "register",
      "outputs": [],
      "stateMutability": "nonpayable",
      "type": "function"
    },
    {
      "inputs": [],
      "name": "getSignatureHash",
      "outputs": [
        {
          "internalType": "string",
          "name": "",
          "type": "string"
        }
      ],
      "stateMutability": "view",
      "type": "function",
      "constant": true
    },
    {
      "inputs": [],
      "name": "getUserAddress",
      "outputs": [
        {
          "internalType": "address",
          "name": "",
          "type": "address"
        }
      ],
      "stateMutability": "view",
      "type": "function",
      "constant": true
    },
    {
      "inputs": [
        {
          "internalType": "string",
          "name": "_name",
          "type": "string"
        },
        {
          "internalType": "string",
          "name": "_celphone",
          "type": "string"
        },
        {
          "internalType": "string",
          "name": "_phone",
          "type": "string"
        },
        {
          "internalType": "string",
          "name": "_email",
          "type": "string"
        },
        {
          "internalType": "string",
          "name": "_gender",
          "type": "string"
        },
        {
          "internalType": "string",
          "name": "_dob",
          "type": "string"
        },
        {
          "internalType": "string",
          "name": "_houseaddr",
          "type": "string"
        },
        {
          "internalType": "string",
          "name": "_state",
          "type": "string"
        },
        {
          "internalType": "string",
          "name": "_cp",
          "type": "string"
        }
      ],
      "name": "setDetails",
      "outputs": [],
      "stateMutability": "nonpayable",
      "type": "function"
    },
    {
      "inputs": [
        {
          "internalType": "string",
          "name": "_name",
          "type": "string"
        },
        {
          "internalType": "string",
          "name": "_celphone",
          "type": "string"
        },
        {
          "internalType": "string",
          "name": "_phone",
          "type": "string"
        },
        {
          "internalType": "string",
          "name": "_email",
          "type": "string"
        },
        {
          "internalType": "string",
          "name": "_gender",
          "type": "string"
        },
        {
          "internalType": "string",
          "name": "_dob",
          "type": "string"
        },
        {
          "internalType": "string",
          "name": "_houseaddr",
          "type": "string"
        },
        {
          "internalType": "string",
          "name": "_state",
          "type": "string"
        },
        {
          "internalType": "string",
          "name": "_cp",
          "type": "string"
        }
      ],
      "name": "editDetails",
      "outputs": [],
      "stateMutability": "nonpayable",
      "type": "function"
    },
    {
      "inputs": [],
      "name": "getUser",
      "outputs": [
        {
          "internalType": "address[]",
          "name": "",
          "type": "address[]"
        }
      ],
      "stateMutability": "view",
      "type": "function",
      "constant": true
    },
    {
      "inputs": [],
      "name": "RecordDate",
      "outputs": [
        {
          "internalType": "uint256",
          "name": "",
          "type": "uint256"
        }
      ],
      "stateMutability": "view",
      "type": "function",
      "constant": true
    },
    {
      "inputs": [],
      "name": "getUserCount",
      "outputs": [
        {
          "internalType": "uint256",
          "name": "",
          "type": "uint256"
        }
      ],
      "stateMutability": "view",
      "type": "function",
      "constant": true
    },
    {
      "inputs": [
        {
          "internalType": "address",
          "name": "_address",
          "type": "address"
        }
      ],
      "name": "searchUserPersonalInfo",
      "outputs": [
        {
          "internalType": "string",
          "name": "",
          "type": "string"
        },
        {
          "internalType": "string",
          "name": "",
          "type": "string"
        },
        {
          "internalType": "string",
          "name": "",
          "type": "string"
        },
        {
          "internalType": "string",
          "name": "",
          "type": "string"
        },
        {
          "internalType": "string",
          "name": "",
          "type": "string"
        },
        {
          "internalType": "string",
          "name": "",
          "type": "string"
        }
      ],
      "stateMutability": "view",
      "type": "function",
      "constant": true
    },
    {
      "inputs": [
        {
          "internalType": "address",
          "name": "_address",
          "type": "address"
        }
      ],
      "name": "searchUserAditionalInfo",
      "outputs": [
        {
          "internalType": "string",
          "name": "",
          "type": "string"
        },
        {
          "internalType": "string",
          "name": "",
          "type": "string"
        },
        {
          "internalType": "string",
          "name": "",
          "type": "string"
        }
      ],
      "stateMutability": "view",
      "type": "function",
      "constant": true
    },
    {
      "inputs": [
        {
          "internalType": "address",
          "name": "_address",
          "type": "address"
        }
      ],
      "name": "UserPersonalInformation",
      "outputs": [
        {
          "internalType": "string",
          "name": "",
          "type": "string"
        },
        {
          "internalType": "string",
          "name": "",
          "type": "string"
        },
        {
          "internalType": "string",
          "name": "",
          "type": "string"
        },
        {
          "internalType": "string",
          "name": "",
          "type": "string"
        },
        {
          "internalType": "string",
          "name": "",
          "type": "string"
        },
        {
          "internalType": "string",
          "name": "",
          "type": "string"
        }
      ],
      "stateMutability": "view",
      "type": "function",
      "constant": true
    },
    {
      "inputs": [
        {
          "internalType": "address",
          "name": "_address",
          "type": "address"
        }
      ],
      "name": "UserPersonalInformation1",
      "outputs": [
        {
          "internalType": "string",
          "name": "",
          "type": "string"
        },
        {
          "internalType": "string",
          "name": "",
          "type": "string"
        },
        {
          "internalType": "string",
          "name": "",
          "type": "string"
        }
      ],
      "stateMutability": "view",
      "type": "function",
      "constant": true
    }
  ],
  "bytecode": "0x6080604052600060055534801561001557600080fd5b50336000806101000a81548173ffffffffffffffffffffffffffffffffffffffff021916908373ffffffffffffffffffffffffffffffffffffffff1602179055506000600681905550612d9d8061006d6000396000f3fe608060405234801561001057600080fd5b506004361061010b5760003560e01c806394fde8fe116100a2578063c127ae4111610071578063c127ae41146102fa578063cbb8923514610318578063e31fa3f814610334578063ebc3eee814610352578063f2c298be146103705761010b565b806394fde8fe1461023d5780639f4216e814610272578063a87430ba146102a2578063b5cb15f7146102dc5761010b565b8063608ae4c4116100de578063608ae4c4146101b357806361fa3b70146101cf578063832880e7146102015780638da5cb5b1461021f5761010b565b806307973ccf14610110578063126793231461012e5780633cefb2131461014c57806351d2013114610181575b600080fd5b61011861038c565b6040516101259190612a59565b60405180910390f35b610136610392565b6040516101439190612a59565b60405180910390f35b610166600480360381019061016191906124a6565b610398565b604051610178969594939291906128a4565b60405180910390f35b61019b600480360381019061019691906124a6565b6108e0565b6040516101aa93929190612858565b60405180910390f35b6101cd60048036038101906101c89190612510565b610bb2565b005b6101e960048036038101906101e491906124a6565b610e10565b6040516101f893929190612858565b60405180910390f35b6102096110e2565b6040516102169190612814565b60405180910390f35b610227611170565b60405161023491906127f9565b60405180910390f35b610257600480360381019061025291906124a6565b611194565b604051610269969594939291906128a4565b60405180910390f35b61028c600480360381019061028791906126ae565b6116dc565b60405161029991906127f9565b60405180910390f35b6102bc60048036038101906102b791906124a6565b61171b565b6040516102d39b9a9998979695949392919061292f565b60405180910390f35b6102e4611c5d565b6040516102f19190612a59565b60405180910390f35b610302611c67565b60405161030f9190612836565b60405180910390f35b610332600480360381019061032d9190612510565b611e09565b005b61033c61213b565b6040516103499190612a59565b60405180910390f35b61035a612143565b60405161036791906127f9565b60405180910390f35b61038a600480360381019061038591906124cf565b6121ad565b005b60055481565b60065481565b606080606080606080600360003373ffffffffffffffffffffffffffffffffffffffff1673ffffffffffffffffffffffffffffffffffffffff16815260200190815260200160002060009054906101000a900460ff166103f757600080fd5b600260008873ffffffffffffffffffffffffffffffffffffffff1673ffffffffffffffffffffffffffffffffffffffff168152602001908152602001600020600001600260008973ffffffffffffffffffffffffffffffffffffffff1673ffffffffffffffffffffffffffffffffffffffff168152602001908152602001600020600101600260008a73ffffffffffffffffffffffffffffffffffffffff1673ffffffffffffffffffffffffffffffffffffffff168152602001908152602001600020600201600260008b73ffffffffffffffffffffffffffffffffffffffff1673ffffffffffffffffffffffffffffffffffffffff168152602001908152602001600020600401600260008c73ffffffffffffffffffffffffffffffffffffffff1673ffffffffffffffffffffffffffffffffffffffff168152602001908152602001600020600501600260008d73ffffffffffffffffffffffffffffffffffffffff1673ffffffffffffffffffffffffffffffffffffffff16815260200190815260200160002060030185805461058f90612b9d565b80601f01602080910402602001604051908101604052809291908181526020018280546105bb90612b9d565b80156106085780601f106105dd57610100808354040283529160200191610608565b820191906000526020600020905b8154815290600101906020018083116105eb57829003601f168201915b5050505050955084805461061b90612b9d565b80601f016020809104026020016040519081016040528092919081815260200182805461064790612b9d565b80156106945780601f1061066957610100808354040283529160200191610694565b820191906000526020600020905b81548152906001019060200180831161067757829003601f168201915b505050505094508380546106a790612b9d565b80601f01602080910402602001604051908101604052809291908181526020018280546106d390612b9d565b80156107205780601f106106f557610100808354040283529160200191610720565b820191906000526020600020905b81548152906001019060200180831161070357829003601f168201915b5050505050935082805461073390612b9d565b80601f016020809104026020016040519081016040528092919081815260200182805461075f90612b9d565b80156107ac5780601f10610781576101008083540402835291602001916107ac565b820191906000526020600020905b81548152906001019060200180831161078f57829003601f168201915b505050505092508180546107bf90612b9d565b80601f01602080910402602001604051908101604052809291908181526020018280546107eb90612b9d565b80156108385780601f1061080d57610100808354040283529160200191610838565b820191906000526020600020905b81548152906001019060200180831161081b57829003601f168201915b5050505050915080805461084b90612b9d565b80601f016020809104026020016040519081016040528092919081815260200182805461087790612b9d565b80156108c45780601f10610899576101008083540402835291602001916108c4565b820191906000526020600020905b8154815290600101906020018083116108a757829003601f168201915b5050505050905095509550955095509550955091939550919395565b6060806060600360003373ffffffffffffffffffffffffffffffffffffffff1673ffffffffffffffffffffffffffffffffffffffff16815260200190815260200160002060009054906101000a900460ff1661093b57600080fd5b600260008573ffffffffffffffffffffffffffffffffffffffff1673ffffffffffffffffffffffffffffffffffffffff168152602001908152602001600020600601600260008673ffffffffffffffffffffffffffffffffffffffff1673ffffffffffffffffffffffffffffffffffffffff168152602001908152602001600020600701600260008773ffffffffffffffffffffffffffffffffffffffff1673ffffffffffffffffffffffffffffffffffffffff168152602001908152602001600020600801828054610a0d90612b9d565b80601f0160208091040260200160405190810160405280929190818152602001828054610a3990612b9d565b8015610a865780601f10610a5b57610100808354040283529160200191610a86565b820191906000526020600020905b815481529060010190602001808311610a6957829003601f168201915b50505050509250818054610a9990612b9d565b80601f0160208091040260200160405190810160405280929190818152602001828054610ac590612b9d565b8015610b125780601f10610ae757610100808354040283529160200191610b12565b820191906000526020600020905b815481529060010190602001808311610af557829003601f168201915b50505050509150808054610b2590612b9d565b80601f0160208091040260200160405190810160405280929190818152602001828054610b5190612b9d565b8015610b9e5780601f10610b7357610100808354040283529160200191610b9e565b820191906000526020600020905b815481529060010190602001808311610b8157829003601f168201915b505050505090509250925092509193909250565b600360003373ffffffffffffffffffffffffffffffffffffffff1673ffffffffffffffffffffffffffffffffffffffff16815260200190815260200160002060009054906101000a900460ff16610c0857600080fd5b6040518061016001604052808a81526020018981526020018881526020018781526020018681526020018581526020018481526020018381526020018281526020013373ffffffffffffffffffffffffffffffffffffffff16815260200142815250600260003373ffffffffffffffffffffffffffffffffffffffff1673ffffffffffffffffffffffffffffffffffffffff1681526020019081526020016000206000820151816000019080519060200190610cc5929190612371565b506020820151816001019080519060200190610ce2929190612371565b506040820151816002019080519060200190610cff929190612371565b506060820151816003019080519060200190610d1c929190612371565b506080820151816004019080519060200190610d39929190612371565b5060a0820151816005019080519060200190610d56929190612371565b5060c0820151816006019080519060200190610d73929190612371565b5060e0820151816007019080519060200190610d90929190612371565b50610100820151816008019080519060200190610dae929190612371565b506101208201518160090160006101000a81548173ffffffffffffffffffffffffffffffffffffffff021916908373ffffffffffffffffffffffffffffffffffffffff16021790555061014082015181600a0155905050505050505050505050565b6060806060600360003373ffffffffffffffffffffffffffffffffffffffff1673ffffffffffffffffffffffffffffffffffffffff16815260200190815260200160002060009054906101000a900460ff16610e6b57600080fd5b600260008573ffffffffffffffffffffffffffffffffffffffff1673ffffffffffffffffffffffffffffffffffffffff168152602001908152602001600020600601600260008673ffffffffffffffffffffffffffffffffffffffff1673ffffffffffffffffffffffffffffffffffffffff168152602001908152602001600020600701600260008773ffffffffffffffffffffffffffffffffffffffff1673ffffffffffffffffffffffffffffffffffffffff168152602001908152602001600020600801828054610f3d90612b9d565b80601f0160208091040260200160405190810160405280929190818152602001828054610f6990612b9d565b8015610fb65780601f10610f8b57610100808354040283529160200191610fb6565b820191906000526020600020905b815481529060010190602001808311610f9957829003601f168201915b50505050509250818054610fc990612b9d565b80601f0160208091040260200160405190810160405280929190818152602001828054610ff590612b9d565b80156110425780601f1061101757610100808354040283529160200191611042565b820191906000526020600020905b81548152906001019060200180831161102557829003601f168201915b5050505050915080805461105590612b9d565b80601f016020809104026020016040519081016040528092919081815260200182805461108190612b9d565b80156110ce5780601f106110a3576101008083540402835291602001916110ce565b820191906000526020600020905b8154815290600101906020018083116110b157829003601f168201915b505050505090509250925092509193909250565b6060600180548060200260200160405190810160405280929190818152602001828054801561116657602002820191906000526020600020905b8160009054906101000a900473ffffffffffffffffffffffffffffffffffffffff1673ffffffffffffffffffffffffffffffffffffffff168152602001906001019080831161111c575b5050505050905090565b60008054906101000a900473ffffffffffffffffffffffffffffffffffffffff1681565b606080606080606080600360003373ffffffffffffffffffffffffffffffffffffffff1673ffffffffffffffffffffffffffffffffffffffff16815260200190815260200160002060009054906101000a900460ff166111f357600080fd5b600260008873ffffffffffffffffffffffffffffffffffffffff1673ffffffffffffffffffffffffffffffffffffffff168152602001908152602001600020600001600260008973ffffffffffffffffffffffffffffffffffffffff1673ffffffffffffffffffffffffffffffffffffffff168152602001908152602001600020600101600260008a73ffffffffffffffffffffffffffffffffffffffff1673ffffffffffffffffffffffffffffffffffffffff168152602001908152602001600020600201600260008b73ffffffffffffffffffffffffffffffffffffffff1673ffffffffffffffffffffffffffffffffffffffff168152602001908152602001600020600401600260008c73ffffffffffffffffffffffffffffffffffffffff1673ffffffffffffffffffffffffffffffffffffffff168152602001908152602001600020600501600260008d73ffffffffffffffffffffffffffffffffffffffff1673ffffffffffffffffffffffffffffffffffffffff16815260200190815260200160002060030185805461138b90612b9d565b80601f01602080910402602001604051908101604052809291908181526020018280546113b790612b9d565b80156114045780601f106113d957610100808354040283529160200191611404565b820191906000526020600020905b8154815290600101906020018083116113e757829003601f168201915b5050505050955084805461141790612b9d565b80601f016020809104026020016040519081016040528092919081815260200182805461144390612b9d565b80156114905780601f1061146557610100808354040283529160200191611490565b820191906000526020600020905b81548152906001019060200180831161147357829003601f168201915b505050505094508380546114a390612b9d565b80601f01602080910402602001604051908101604052809291908181526020018280546114cf90612b9d565b801561151c5780601f106114f15761010080835404028352916020019161151c565b820191906000526020600020905b8154815290600101906020018083116114ff57829003601f168201915b5050505050935082805461152f90612b9d565b80601f016020809104026020016040519081016040528092919081815260200182805461155b90612b9d565b80156115a85780601f1061157d576101008083540402835291602001916115a8565b820191906000526020600020905b81548152906001019060200180831161158b57829003601f168201915b505050505092508180546115bb90612b9d565b80601f01602080910402602001604051908101604052809291908181526020018280546115e790612b9d565b80156116345780601f1061160957610100808354040283529160200191611634565b820191906000526020600020905b81548152906001019060200180831161161757829003601f168201915b5050505050915080805461164790612b9d565b80601f016020809104026020016040519081016040528092919081815260200182805461167390612b9d565b80156116c05780601f10611695576101008083540402835291602001916116c0565b820191906000526020600020905b8154815290600101906020018083116116a357829003601f168201915b5050505050905095509550955095509550955091939550919395565b600181815481106116ec57600080fd5b906000526020600020016000915054906101000a900473ffffffffffffffffffffffffffffffffffffffff1681565b600260205280600052604060002060009150905080600001805461173e90612b9d565b80601f016020809104026020016040519081016040528092919081815260200182805461176a90612b9d565b80156117b75780601f1061178c576101008083540402835291602001916117b7565b820191906000526020600020905b81548152906001019060200180831161179a57829003601f168201915b5050505050908060010180546117cc90612b9d565b80601f01602080910402602001604051908101604052809291908181526020018280546117f890612b9d565b80156118455780601f1061181a57610100808354040283529160200191611845565b820191906000526020600020905b81548152906001019060200180831161182857829003601f168201915b50505050509080600201805461185a90612b9d565b80601f016020809104026020016040519081016040528092919081815260200182805461188690612b9d565b80156118d35780601f106118a8576101008083540402835291602001916118d3565b820191906000526020600020905b8154815290600101906020018083116118b657829003601f168201915b5050505050908060030180546118e890612b9d565b80601f016020809104026020016040519081016040528092919081815260200182805461191490612b9d565b80156119615780601f1061193657610100808354040283529160200191611961565b820191906000526020600020905b81548152906001019060200180831161194457829003601f168201915b50505050509080600401805461197690612b9d565b80601f01602080910402602001604051908101604052809291908181526020018280546119a290612b9d565b80156119ef5780601f106119c4576101008083540402835291602001916119ef565b820191906000526020600020905b8154815290600101906020018083116119d257829003601f168201915b505050505090806005018054611a0490612b9d565b80601f0160208091040260200160405190810160405280929190818152602001828054611a3090612b9d565b8015611a7d5780601f10611a5257610100808354040283529160200191611a7d565b820191906000526020600020905b815481529060010190602001808311611a6057829003601f168201915b505050505090806006018054611a9290612b9d565b80601f0160208091040260200160405190810160405280929190818152602001828054611abe90612b9d565b8015611b0b5780601f10611ae057610100808354040283529160200191611b0b565b820191906000526020600020905b815481529060010190602001808311611aee57829003601f168201915b505050505090806007018054611b2090612b9d565b80601f0160208091040260200160405190810160405280929190818152602001828054611b4c90612b9d565b8015611b995780601f10611b6e57610100808354040283529160200191611b99565b820191906000526020600020905b815481529060010190602001808311611b7c57829003601f168201915b505050505090806008018054611bae90612b9d565b80601f0160208091040260200160405190810160405280929190818152602001828054611bda90612b9d565b8015611c275780601f10611bfc57610100808354040283529160200191611c27565b820191906000526020600020905b815481529060010190602001808311611c0a57829003601f168201915b5050505050908060090160009054906101000a900473ffffffffffffffffffffffffffffffffffffffff169080600a015490508b565b6000600554905090565b6060600460003373ffffffffffffffffffffffffffffffffffffffff1673ffffffffffffffffffffffffffffffffffffffff16815260200190815260200160002060010160009054906101000a900473ffffffffffffffffffffffffffffffffffffffff1673ffffffffffffffffffffffffffffffffffffffff163373ffffffffffffffffffffffffffffffffffffffff1614611d39576040517f08c379a0000000000000000000000000000000000000000000000000000000008152600401611d3090612a39565b60405180910390fd5b600460003373ffffffffffffffffffffffffffffffffffffffff1673ffffffffffffffffffffffffffffffffffffffff1681526020019081526020016000206000018054611d8690612b9d565b80601f0160208091040260200160405190810160405280929190818152602001828054611db290612b9d565b8015611dff5780601f10611dd457610100808354040283529160200191611dff565b820191906000526020600020905b815481529060010190602001808311611de257829003601f168201915b5050505050905090565b600360003373ffffffffffffffffffffffffffffffffffffffff1673ffffffffffffffffffffffffffffffffffffffff16815260200190815260200160002060009054906101000a900460ff1615611e6057600080fd5b6040518061016001604052808a81526020018981526020018881526020018781526020018681526020018581526020018481526020018381526020018281526020013373ffffffffffffffffffffffffffffffffffffffff16815260200142815250600260003373ffffffffffffffffffffffffffffffffffffffff1673ffffffffffffffffffffffffffffffffffffffff1681526020019081526020016000206000820151816000019080519060200190611f1d929190612371565b506020820151816001019080519060200190611f3a929190612371565b506040820151816002019080519060200190611f57929190612371565b506060820151816003019080519060200190611f74929190612371565b506080820151816004019080519060200190611f91929190612371565b5060a0820151816005019080519060200190611fae929190612371565b5060c0820151816006019080519060200190611fcb929190612371565b5060e0820151816007019080519060200190611fe8929190612371565b50610100820151816008019080519060200190612006929190612371565b506101208201518160090160006101000a81548173ffffffffffffffffffffffffffffffffffffffff021916908373ffffffffffffffffffffffffffffffffffffffff16021790555061014082015181600a01559050506001339080600181540180825580915050600190039060005260206000200160009091909190916101000a81548173ffffffffffffffffffffffffffffffffffffffff021916908373ffffffffffffffffffffffffffffffffffffffff1602179055506001600360003373ffffffffffffffffffffffffffffffffffffffff1673ffffffffffffffffffffffffffffffffffffffff16815260200190815260200160002060006101000a81548160ff0219169083151502179055506005600081548092919061212b90612c00565b9190505550505050505050505050565b600042905090565b6000600460003373ffffffffffffffffffffffffffffffffffffffff1673ffffffffffffffffffffffffffffffffffffffff16815260200190815260200160002060010160009054906101000a900473ffffffffffffffffffffffffffffffffffffffff16905090565b600073ffffffffffffffffffffffffffffffffffffffff16600460003373ffffffffffffffffffffffffffffffffffffffff1673ffffffffffffffffffffffffffffffffffffffff16815260200190815260200160002060010160009054906101000a900473ffffffffffffffffffffffffffffffffffffffff1673ffffffffffffffffffffffffffffffffffffffff161461227e576040517f08c379a000000000000000000000000000000000000000000000000000000000815260040161227590612a19565b60405180910390fd5b80600460003373ffffffffffffffffffffffffffffffffffffffff1673ffffffffffffffffffffffffffffffffffffffff16815260200190815260200160002060000190805190602001906122d4929190612371565b5033600460003373ffffffffffffffffffffffffffffffffffffffff1673ffffffffffffffffffffffffffffffffffffffff16815260200190815260200160002060010160006101000a81548173ffffffffffffffffffffffffffffffffffffffff021916908373ffffffffffffffffffffffffffffffffffffffff1602179055506006600081548092919061236990612c00565b919050555050565b82805461237d90612b9d565b90600052602060002090601f01602090048101928261239f57600085556123e6565b82601f106123b857805160ff19168380011785556123e6565b828001600101855582156123e6579182015b828111156123e55782518255916020019190600101906123ca565b5b5090506123f391906123f7565b5090565b5b808211156124105760008160009055506001016123f8565b5090565b600061242761242284612a99565b612a74565b90508281526020810184848401111561243f57600080fd5b61244a848285612b5b565b509392505050565b60008135905061246181612d39565b92915050565b600082601f83011261247857600080fd5b8135612488848260208601612414565b91505092915050565b6000813590506124a081612d50565b92915050565b6000602082840312156124b857600080fd5b60006124c684828501612452565b91505092915050565b6000602082840312156124e157600080fd5b600082013567ffffffffffffffff8111156124fb57600080fd5b61250784828501612467565b91505092915050565b60008060008060008060008060006101208a8c03121561252f57600080fd5b60008a013567ffffffffffffffff81111561254957600080fd5b6125558c828d01612467565b99505060208a013567ffffffffffffffff81111561257257600080fd5b61257e8c828d01612467565b98505060408a013567ffffffffffffffff81111561259b57600080fd5b6125a78c828d01612467565b97505060608a013567ffffffffffffffff8111156125c457600080fd5b6125d08c828d01612467565b96505060808a013567ffffffffffffffff8111156125ed57600080fd5b6125f98c828d01612467565b95505060a08a013567ffffffffffffffff81111561261657600080fd5b6126228c828d01612467565b94505060c08a013567ffffffffffffffff81111561263f57600080fd5b61264b8c828d01612467565b93505060e08a013567ffffffffffffffff81111561266857600080fd5b6126748c828d01612467565b9250506101008a013567ffffffffffffffff81111561269257600080fd5b61269e8c828d01612467565b9150509295985092959850929598565b6000602082840312156126c057600080fd5b60006126ce84828501612491565b91505092915050565b60006126e383836126ef565b60208301905092915050565b6126f881612b1f565b82525050565b61270781612b1f565b82525050565b600061271882612ada565b6127228185612afd565b935061272d83612aca565b8060005b8381101561275e57815161274588826126d7565b975061275083612af0565b925050600181019050612731565b5085935050505092915050565b600061277682612ae5565b6127808185612b0e565b9350612790818560208601612b6a565b61279981612cd6565b840191505092915050565b60006127b1600d83612b0e565b91506127bc82612ce7565b602082019050919050565b60006127d4600c83612b0e565b91506127df82612d10565b602082019050919050565b6127f381612b51565b82525050565b600060208201905061280e60008301846126fe565b92915050565b6000602082019050818103600083015261282e818461270d565b905092915050565b60006020820190508181036000830152612850818461276b565b905092915050565b60006060820190508181036000830152612872818661276b565b90508181036020830152612886818561276b565b9050818103604083015261289a818461276b565b9050949350505050565b600060c08201905081810360008301526128be818961276b565b905081810360208301526128d2818861276b565b905081810360408301526128e6818761276b565b905081810360608301526128fa818661276b565b9050818103608083015261290e818561276b565b905081810360a0830152612922818461276b565b9050979650505050505050565b600061016082019050818103600083015261294a818e61276b565b9050818103602083015261295e818d61276b565b90508181036040830152612972818c61276b565b90508181036060830152612986818b61276b565b9050818103608083015261299a818a61276b565b905081810360a08301526129ae818961276b565b905081810360c08301526129c2818861276b565b905081810360e08301526129d6818761276b565b90508181036101008301526129eb818661276b565b90506129fb6101208301856126fe565b612a096101408301846127ea565b9c9b505050505050505050505050565b60006020820190508181036000830152612a32816127a4565b9050919050565b60006020820190508181036000830152612a52816127c7565b9050919050565b6000602082019050612a6e60008301846127ea565b92915050565b6000612a7e612a8f565b9050612a8a8282612bcf565b919050565b6000604051905090565b600067ffffffffffffffff821115612ab457612ab3612ca7565b5b612abd82612cd6565b9050602081019050919050565b6000819050602082019050919050565b600081519050919050565b600081519050919050565b6000602082019050919050565b600082825260208201905092915050565b600082825260208201905092915050565b6000612b2a82612b31565b9050919050565b600073ffffffffffffffffffffffffffffffffffffffff82169050919050565b6000819050919050565b82818337600083830152505050565b60005b83811015612b88578082015181840152602081019050612b6d565b83811115612b97576000848401525b50505050565b60006002820490506001821680612bb557607f821691505b60208210811415612bc957612bc8612c78565b5b50919050565b612bd882612cd6565b810181811067ffffffffffffffff82111715612bf757612bf6612ca7565b5b80604052505050565b6000612c0b82612b51565b91507fffffffffffffffffffffffffffffffffffffffffffffffffffffffffffffffff821415612c3e57612c3d612c49565b5b600182019050919050565b7f4e487b7100000000000000000000000000000000000000000000000000000000600052601160045260246000fd5b7f4e487b7100000000000000000000000000000000000000000000000000000000600052602260045260246000fd5b7f4e487b7100000000000000000000000000000000000000000000000000000000600052604160045260246000fd5b6000601f19601f8301169050919050565b7f5961207265676973747261646f00000000000000000000000000000000000000600082015250565b7f4e6f207065726d697469646f0000000000000000000000000000000000000000600082015250565b612d4281612b1f565b8114612d4d57600080fd5b50565b612d5981612b51565b8114612d6457600080fd5b5056fea2646970667358221220a9bbb4e9df059eed7404d3b41178f6317ee383afdfafadc8b4bf3a253f4120c464736f6c63430008040033",
  "immutableReferences": {},
  "source": "// SPDX-License-Identifier: MIT\r\npragma solidity ^0.8.4;\r\n\r\ncontract Record {\r\n\r\n    // Estructura para el usuario signatureHash => Firma hash, userAddress => direccion del usuario\r\n    struct Username {\r\n        string signatureHash;\r\n        address userAddress;\r\n    }\r\n\r\n    struct Users {\r\n        string name;\r\n        // Numero celular\r\n        string celphone;\r\n        // Numero fijo\r\n        string phone;\r\n        // Correo\r\n        string email;\r\n        // Genero\r\n        string gender;\r\n        // Fecha de nacimiento\r\n        string dob;\r\n        // Direccion\r\n        string houseaddr;\r\n        // Estado\r\n        string state;\r\n        // CP\r\n        string cp;\r\n        // Direccion-contr\r\n        address addr;\r\n        // Tiempo de carga\r\n        uint uploadTime;\r\n    }\r\n\r\n    address public owner;\r\n    address[] public userList;\r\n\r\n    // mapping(address => user) public users\r\n    mapping(address => Users) public users;\r\n    mapping(address => bool) isUser;\r\n    // Mapping para relacionar la direccion con el usuario con la estructura que contiene la direcion y la firma de hash\r\n    mapping(address => Username) private user1;\r\n\r\n    uint256 public userCount = 0;\r\n    // Numero de usuarios\r\n    uint256 public nbOfUsers;\r\n\r\n    constructor() {\r\n        owner = msg.sender;\r\n        nbOfUsers = 0;\r\n    }\r\n    // =======================\r\n    // =  L   O   G   I   N  =\r\n    // =======================\r\n\r\n    // Funcion de registro de usuario, en donde el msgsender es el usuario y verifica si la direccion (wallet) ya se encuentra dado de alta.\r\n    // Se registra un has nuevo.\r\n    function register(string memory _signature) public {\r\n        require(\r\n            user1[msg.sender].userAddress ==\r\n                address(0x0000000000000000000000000000000000000000),\r\n            \"Ya registrado\"\r\n        );\r\n\r\n        // El usuario combinado con la forma hash se guarda en la variable _signature\r\n        user1[msg.sender].signatureHash = _signature;\r\n        // El usuario combinado con la direccion del\r\n        user1[msg.sender].userAddress = msg.sender;\r\n        nbOfUsers++;\r\n    }\r\n\r\n    // Funcion para obtener la FirmaHash (el hash registrado).\r\n    function getSignatureHash() public view returns (string memory) {\r\n        // Para poder hacerlo se requiere que exista el usuario (msg.sender sea igual al usuario del que se obtiene la direccion de ethereum.\r\n        require(msg.sender == user1[msg.sender].userAddress, \"No permitido\");\r\n        // Se retorna la la firma asociada al msg.sender\r\n        return user1[msg.sender].signatureHash;\r\n    }\r\n\r\n    // Funcion para obtener la direccion del usuario.\r\n    function getUserAddress() public view returns (address) {\r\n        // msg.sender sea igual a la direccion del usuario.\r\n        return user1[msg.sender].userAddress;\r\n    }\r\n    // =============================\r\n    // =  R E C O R D - B L O C K  =\r\n    // =============================\r\n\r\n    // Recupera los datos del usuario (de la pgina de registro del usuario) y almacena la cadena de bloques.\r\n    // Retrieve user details from user sign up page and store the details into the blockchain.\r\n    function setDetails(\r\n        string memory _name,\r\n        string memory _celphone,\r\n        string memory _phone,\r\n        string memory _email,\r\n        string memory _gender,\r\n        string memory _dob,\r\n        string memory _houseaddr,\r\n        string memory _state,\r\n        string memory _cp\r\n    ) public {\r\n        require(!isUser[msg.sender]);\r\n        users[msg.sender] = Users(\r\n            _name,\r\n            _celphone,\r\n            _phone,\r\n            _email,\r\n            _gender,\r\n            _dob,\r\n            _houseaddr,\r\n            _state,\r\n            _cp,\r\n            msg.sender,\r\n            block.timestamp\r\n        );\r\n\r\n        userList.push(msg.sender);\r\n        isUser[msg.sender] = true;\r\n        //isApproved[msg.sender][msg.sender] = true;\r\n        userCount++;\r\n    }\r\n\r\n    // Permite al usuario editar su registro existente.\r\n    // Allows user to edit their existing record.\r\n    function editDetails(\r\n        string memory _name,\r\n        string memory _celphone,\r\n        string memory _phone,\r\n        string memory _email,\r\n        string memory _gender,\r\n        string memory _dob,\r\n        string memory _houseaddr,\r\n        string memory _state,\r\n        string memory _cp\r\n    ) public {\r\n        require(isUser[msg.sender]);\r\n        users[msg.sender] = Users(\r\n            _name,\r\n            _celphone,\r\n            _phone,\r\n            _email,\r\n            _gender,\r\n            _dob,\r\n            _houseaddr,\r\n            _state,\r\n            _cp,\r\n            msg.sender,\r\n            block.timestamp\r\n        );\r\n    }\r\n\r\n    // Recuperar una lista de todas las direcciones de los usuarios.\r\n    // Retrieve a list of all users address.\r\n    function getUser() public view returns (address[] memory) {\r\n        return userList;\r\n    }\r\n\r\n    // Busca la fecha de creacin del registro del usuario ingresando la direccin del usuario.\r\n    // Search user record creation date by entering a user address.\r\n   function RecordDate() public view returns (uint256) {\r\n        // users[_address];\r\n        return block.timestamp;\r\n    } \r\n\r\n    // Recuperar conteo de usuarios.\r\n    // Retrieve usuarios count.\r\n    function getUserCount() public view returns (uint256) {\r\n        return userCount;\r\n    }\r\n\r\n    // Busca los detalles de la informacion personal del usuario ingresando la direccin (Usuario), (solo se permitira el acceso al propietario del registro)\r\n    // Search user personal information details by entering a user address (only the owner of the record will be allowed access).\r\n    function searchUserPersonalInfo(address _address)\r\n        public\r\n        view\r\n        returns (\r\n            string memory,\r\n            string memory,\r\n            string memory,\r\n            string memory,\r\n            string memory,\r\n            string memory\r\n        )\r\n    {\r\n        require(isUser[msg.sender]);\r\n        return (\r\n            users[_address].name,\r\n            users[_address].celphone,\r\n            users[_address].phone,\r\n            users[_address].gender,\r\n            users[_address].dob,\r\n            users[_address].email\r\n        );\r\n    }\r\n\r\n    // Buscar detalles de informacin adicional del usuario ingresando una direccin de usuario (solo se permitir el acceso al propietario del registro)\r\n    // Search user aditional Information details by entering a user address (Only record owner  will be allowed to access)\r\n    function searchUserAditionalInfo(address _address)\r\n        public\r\n        view\r\n        returns (\r\n            string memory,\r\n            string memory,\r\n            string memory\r\n        )\r\n    {\r\n        require(isUser[msg.sender]);\r\n        return (\r\n            users[_address].houseaddr,\r\n            users[_address].state,\r\n            users[_address].cp\r\n        );\r\n    }\r\n\r\n    // Busca los detalles de la informacion del usuario ingresando la direccin (Usuario), (solo se permitira el acceso al propietario del registro)\r\n    // Search user personal information details by entering a user address (only the owner of the record will be allowed access).\r\n    function UserPersonalInformation(address _address)\r\n        public\r\n        view\r\n        returns (\r\n            string memory,\r\n            string memory,\r\n            string memory,\r\n            string memory,\r\n            string memory,\r\n            string memory\r\n        )\r\n    {\r\n        require(isUser[msg.sender]);\r\n        return (\r\n            users[_address].name,\r\n            users[_address].celphone,\r\n            users[_address].phone,\r\n            users[_address].gender,\r\n            users[_address].dob,\r\n            users[_address].email\r\n        );\r\n    }\r\n\r\n    function UserPersonalInformation1(address _address)\r\n        public\r\n        view\r\n        returns (\r\n            string memory,\r\n            string memory,\r\n            string memory\r\n        )\r\n    {\r\n        require(isUser[msg.sender]);\r\n        return (\r\n            users[_address].houseaddr,\r\n            users[_address].state,\r\n            users[_address].cp\r\n        );\r\n    }\r\n}\r\n",
  "sourcePath": "C:\\Users\\ProBook\\Documents\\INSISCOMP1\\BLOCKCHAIN\\Authentication-Record-ver2\\Auth-record\\nextjs-blog\\contracts\\Record.sol",
  "compiler": {
    "name": "solc",
    "version": "0.8.4+commit.c7e474f2.Emscripten.clang"
  },
  "schemaVersion": "3.4.10",
  "updatedAt": "2023-06-14T18:41:03.595Z",
  "networkType": "ethereum",
  "devdoc": {
    "kind": "dev",
    "methods": {},
    "version": 1
  },
  "userdoc": {
    "kind": "user",
    "methods": {},
    "version": 1
  }
}